{
    "_format": "hh-sol-artifact-1",
    "contractName": "Lottery",
    "sourceName": "contracts/LotteryV2.sol",
    "abi": [
        {
            "inputs": [],
            "stateMutability": "nonpayable",
            "type": "constructor"
        },
        {
            "anonymous": false,
            "inputs": [
                {
                    "indexed": true,
                    "internalType": "address",
                    "name": "previousOwner",
                    "type": "address"
                },
                {
                    "indexed": true,
                    "internalType": "address",
                    "name": "newOwner",
                    "type": "address"
                }
            ],
            "name": "OwnershipTransferred",
            "type": "event"
        },
        {
            "anonymous": false,
            "inputs": [
                {
                    "indexed": false,
                    "internalType": "address",
                    "name": "",
                    "type": "address"
                }
            ],
            "name": "SetWinnerAddress",
            "type": "event"
        },
        {
            "anonymous": false,
            "inputs": [
                {
                    "indexed": false,
                    "internalType": "address",
                    "name": "",
                    "type": "address"
                }
            ],
            "name": "SuccessfulContractConnection",
            "type": "event"
        },
        {
            "anonymous": false,
            "inputs": [
                {
                    "indexed": false,
                    "internalType": "address",
                    "name": "",
                    "type": "address"
                }
            ],
            "name": "SuccessfulContractDisconnection",
            "type": "event"
        },
        {
            "anonymous": false,
            "inputs": [
                {
                    "indexed": false,
                    "internalType": "bool",
                    "name": "",
                    "type": "bool"
                }
            ],
            "name": "SuccessfulPayment",
            "type": "event"
        },
        {
            "stateMutability": "payable",
            "type": "fallback"
        },
        {
            "inputs": [],
            "name": "_isPaused",
            "outputs": [
                {
                    "internalType": "bool",
                    "name": "",
                    "type": "bool"
                }
            ],
            "stateMutability": "view",
            "type": "function"
        },
        {
            "inputs": [],
            "name": "_isVRFv2Connected",
            "outputs": [
                {
                    "internalType": "bool",
                    "name": "",
                    "type": "bool"
                }
            ],
            "stateMutability": "view",
            "type": "function"
        },
        {
            "inputs": [
                {
                    "internalType": "uint256",
                    "name": "",
                    "type": "uint256"
                }
            ],
            "name": "_lotteryHistory",
            "outputs": [
                {
                    "internalType": "address",
                    "name": "",
                    "type": "address"
                }
            ],
            "stateMutability": "view",
            "type": "function"
        },
        {
            "inputs": [],
            "name": "_lotteryId",
            "outputs": [
                {
                    "internalType": "uint256",
                    "name": "",
                    "type": "uint256"
                }
            ],
            "stateMutability": "view",
            "type": "function"
        },
        {
            "inputs": [
                {
                    "internalType": "uint256",
                    "name": "salt",
                    "type": "uint256"
                }
            ],
            "name": "computeWinner",
            "outputs": [],
            "stateMutability": "nonpayable",
            "type": "function"
        },
        {
            "inputs": [
                {
                    "internalType": "address",
                    "name": "vrfAddress",
                    "type": "address"
                }
            ],
            "name": "connectToVRFv2ConsumerContract",
            "outputs": [],
            "stateMutability": "nonpayable",
            "type": "function"
        },
        {
            "inputs": [],
            "name": "disconnectFromVRFv2ConsumerContract",
            "outputs": [],
            "stateMutability": "nonpayable",
            "type": "function"
        },
        {
            "inputs": [
                {
                    "internalType": "uint256",
                    "name": "amount",
                    "type": "uint256"
                }
            ],
            "name": "mint",
            "outputs": [],
            "stateMutability": "payable",
            "type": "function"
        },
        {
            "inputs": [],
            "name": "owner",
            "outputs": [
                {
                    "internalType": "address",
                    "name": "",
                    "type": "address"
                }
            ],
            "stateMutability": "view",
            "type": "function"
        },
        {
            "inputs": [],
            "name": "playPause",
            "outputs": [],
            "stateMutability": "nonpayable",
            "type": "function"
        },
        {
            "inputs": [],
            "name": "renounceOwnership",
            "outputs": [],
            "stateMutability": "nonpayable",
            "type": "function"
        },
        {
            "inputs": [
                {
                    "internalType": "uint256",
                    "name": "lotteryId",
                    "type": "uint256"
                },
                {
                    "internalType": "address",
                    "name": "owner",
                    "type": "address"
                }
            ],
            "name": "ticketAmountByLotteryIdAndAddress",
            "outputs": [
                {
                    "internalType": "uint256",
                    "name": "",
                    "type": "uint256"
                }
            ],
            "stateMutability": "view",
            "type": "function"
        },
        {
            "inputs": [
                {
                    "internalType": "uint256",
                    "name": "lotteryId",
                    "type": "uint256"
                },
                {
                    "internalType": "address",
                    "name": "owner",
                    "type": "address"
                }
            ],
            "name": "ticketByLotteryIdAndAddress",
            "outputs": [
                {
                    "internalType": "uint256[]",
                    "name": "",
                    "type": "uint256[]"
                }
            ],
            "stateMutability": "view",
            "type": "function"
        },
        {
            "inputs": [
                {
                    "internalType": "uint256",
                    "name": "lotteryId",
                    "type": "uint256"
                },
                {
                    "internalType": "uint256",
                    "name": "ticketId",
                    "type": "uint256"
                }
            ],
            "name": "ticketOwnershipByLotteryIdAndTicketId",
            "outputs": [
                {
                    "internalType": "address",
                    "name": "",
                    "type": "address"
                }
            ],
            "stateMutability": "view",
            "type": "function"
        },
        {
            "inputs": [],
            "name": "totalSupply",
            "outputs": [
                {
                    "internalType": "uint256",
                    "name": "",
                    "type": "uint256"
                }
            ],
            "stateMutability": "view",
            "type": "function"
        },
        {
            "inputs": [
                {
                    "internalType": "address",
                    "name": "newOwner",
                    "type": "address"
                }
            ],
            "name": "transferOwnership",
            "outputs": [],
            "stateMutability": "nonpayable",
            "type": "function"
        },
        {
            "stateMutability": "payable",
            "type": "receive"
        }
    ],
    "bytecode": "0x608060405260016003556001600760016101000a81548160ff0219169083151502179055506000600760026101000a81548160ff02191690831515021790555073faead884fdada5b42e8fdd61edf6286e7fc61b0a600760036101000a81548173ffffffffffffffffffffffffffffffffffffffff021916908373ffffffffffffffffffffffffffffffffffffffff160217905550348015620000a157600080fd5b50620000c2620000b6620000c860201b60201c565b620000d060201b60201c565b62000194565b600033905090565b60008060009054906101000a900473ffffffffffffffffffffffffffffffffffffffff169050816000806101000a81548173ffffffffffffffffffffffffffffffffffffffff021916908373ffffffffffffffffffffffffffffffffffffffff1602179055508173ffffffffffffffffffffffffffffffffffffffff168173ffffffffffffffffffffffffffffffffffffffff167f8be0079c531659141344cd1fd0a4f28419497f9722a3daafe3b4186f6b6457e060405160405180910390a35050565b612d5b80620001a46000396000f3fe6080604052600436106100f75760003560e01c8063859859a01161008a578063a0712d6811610059578063a0712d68146102fa578063e2684f0814610316578063e35c730914610341578063f2fde38b1461037e576100fe565b8063859859a014610240578063879cbc30146102695780638da5cb5b1461029257806396c19b23146102bd576100fe565b806341040392116100c6578063410403921461019857806356057df8146101af5780635f73f4d1146101ec578063715018a614610229576100fe565b806318160ddd1461010057806323e699e01461012b578063247f2a2e146101425780633af60e9d1461016d576100fe565b366100fe57005b005b34801561010c57600080fd5b506101156103a7565b60405161012291906119b8565b60405180910390f35b34801561013757600080fd5b506101406103b1565b005b34801561014e57600080fd5b50610157610476565b60405161016491906119b8565b60405180910390f35b34801561017957600080fd5b5061018261047c565b60405161018f91906119ee565b60405180910390f35b3480156101a457600080fd5b506101ad61048f565b005b3480156101bb57600080fd5b506101d660048036038101906101d19190611a49565b6105e0565b6040516101e39190611aca565b60405180910390f35b3480156101f857600080fd5b50610213600480360381019061020e9190611b11565b61062f565b60405161022091906119b8565b60405180910390f35b34801561023557600080fd5b5061023e61068d565b005b34801561024c57600080fd5b5061026760048036038101906102629190611b51565b6106a1565b005b34801561027557600080fd5b50610290600480360381019061028b9190611b7e565b61085b565b005b34801561029e57600080fd5b506102a7610eef565b6040516102b49190611aca565b60405180910390f35b3480156102c957600080fd5b506102e460048036038101906102df9190611b7e565b610f18565b6040516102f19190611aca565b60405180910390f35b610314600480360381019061030f9190611b7e565b610f4b565b005b34801561032257600080fd5b5061032b611317565b60405161033891906119ee565b60405180910390f35b34801561034d57600080fd5b5061036860048036038101906103639190611b11565b61132a565b6040516103759190611c69565b60405180910390f35b34801561038a57600080fd5b506103a560048036038101906103a09190611b51565b6113d3565b005b6000600154905090565b6103b9611456565b600073ffffffffffffffffffffffffffffffffffffffff16600960009054906101000a900473ffffffffffffffffffffffffffffffffffffffff1673ffffffffffffffffffffffffffffffffffffffff161461044a576040517f08c379a000000000000000000000000000000000000000000000000000000000815260040161044190611d34565b60405180910390fd5b600760019054906101000a900460ff1615600760016101000a81548160ff021916908315150217905550565b60035481565b600760029054906101000a900460ff1681565b610497611456565b600073ffffffffffffffffffffffffffffffffffffffff16600960009054906101000a900473ffffffffffffffffffffffffffffffffffffffff1673ffffffffffffffffffffffffffffffffffffffff1603610528576040517f08c379a000000000000000000000000000000000000000000000000000000000815260040161051f90611dc6565b60405180910390fd5b6000600960006101000a81548173ffffffffffffffffffffffffffffffffffffffff021916908373ffffffffffffffffffffffffffffffffffffffff1602179055506000600760026101000a81548160ff0219169083151502179055507fa0aefe2ccfade6d4e8694bae96f46d93e9d37305b388c2014ee4c336dceb5a25600960009054906101000a900473ffffffffffffffffffffffffffffffffffffffff166040516105d69190611aca565b60405180910390a1565b600060056000848152602001908152602001600020600083815260200190815260200160002060009054906101000a900473ffffffffffffffffffffffffffffffffffffffff16905092915050565b60006006600084815260200190815260200160002060008373ffffffffffffffffffffffffffffffffffffffff1673ffffffffffffffffffffffffffffffffffffffff16815260200190815260200160002080549050905092915050565b610695611456565b61069f60006114d4565b565b6106a9611456565b600073ffffffffffffffffffffffffffffffffffffffff1660046000600354815260200190815260200160002060009054906101000a900473ffffffffffffffffffffffffffffffffffffffff1673ffffffffffffffffffffffffffffffffffffffff161461074d576040517f08c379a000000000000000000000000000000000000000000000000000000000815260040161074490611e58565b60405180910390fd5b60011515600760019054906101000a900460ff161515146107a3576040517f08c379a000000000000000000000000000000000000000000000000000000000815260040161079a90611f10565b60405180910390fd5b80600960006101000a81548173ffffffffffffffffffffffffffffffffffffffff021916908373ffffffffffffffffffffffffffffffffffffffff1602179055506001600760026101000a81548160ff0219169083151502179055507fed90b1f19c6bb9ad4533a8eb14208d85a4a21a059aab79ae0215b772db707782600960009054906101000a900473ffffffffffffffffffffffffffffffffffffffff166040516108509190611aca565b60405180910390a150565b610863611456565b600073ffffffffffffffffffffffffffffffffffffffff1660046000600354815260200190815260200160002060009054906101000a900473ffffffffffffffffffffffffffffffffffffffff1673ffffffffffffffffffffffffffffffffffffffff1614610907576040517f08c379a00000000000000000000000000000000000000000000000000000000081526004016108fe90611e58565b60405180910390fd5b60011515600760019054906101000a900460ff1615151461095d576040517f08c379a000000000000000000000000000000000000000000000000000000000815260040161095490611f10565b60405180910390fd5b60006109676103a7565b9050600081116109ac576040517f08c379a00000000000000000000000000000000000000000000000000000000081526004016109a390611f7c565b60405180910390fd5b6109b4611598565b60011515600760009054906101000a900460ff16151514610a0a576040517f08c379a0000000000000000000000000000000000000000000000000000000008152600401610a0190612034565b60405180910390fd5b60006005600284604051602001610a2292919061217d565b6040516020818303038152906040528051906020012060001c610a4591906121d4565b9050600060088281548110610a5d57610a5c612205565b5b9060005260206000200160009054906101000a900473ffffffffffffffffffffffffffffffffffffffff16905060006003549050600073ffffffffffffffffffffffffffffffffffffffff168273ffffffffffffffffffffffffffffffffffffffff1603610b00576040517f08c379a0000000000000000000000000000000000000000000000000000000008152600401610af7906122a6565b60405180910390fd5b6000610b0c828461062f565b11610b4c576040517f08c379a0000000000000000000000000000000000000000000000000000000008152600401610b4390612338565b60405180910390fd5b8173ffffffffffffffffffffffffffffffffffffffff16610b6d82856105e0565b73ffffffffffffffffffffffffffffffffffffffff1614610bc3576040517f08c379a0000000000000000000000000000000000000000000000000000000008152600401610bba906123f0565b60405180910390fd5b60008273ffffffffffffffffffffffffffffffffffffffff166064605a47610beb919061243f565b610bf59190612481565b604051610c01906124e3565b60006040518083038185875af1925050503d8060008114610c3e576040519150601f19603f3d011682016040523d82523d6000602084013e610c43565b606091505b5050905080610c87576040517f08c379a0000000000000000000000000000000000000000000000000000000008152600401610c7e9061256a565b60405180910390fd5b7f4903e6157284fff3588fd3143497eef34edfc6cbd68392c899b36ef59f8d21e881604051610cb691906119ee565b60405180910390a1600760039054906101000a900473ffffffffffffffffffffffffffffffffffffffff1673ffffffffffffffffffffffffffffffffffffffff1647604051610d04906124e3565b60006040518083038185875af1925050503d8060008114610d41576040519150601f19603f3d011682016040523d82523d6000602084013e610d46565b606091505b50508091505080610d8c576040517f08c379a0000000000000000000000000000000000000000000000000000000008152600401610d83906125fc565b60405180910390fd5b7f4903e6157284fff3588fd3143497eef34edfc6cbd68392c899b36ef59f8d21e881604051610dbb91906119ee565b60405180910390a1826004600084815260200190815260200160002060006101000a81548173ffffffffffffffffffffffffffffffffffffffff021916908373ffffffffffffffffffffffffffffffffffffffff1602179055507fc3f990bd19e4857c63bf4187d0ea3f11c4d5595fcd13defad3bcbe4395f54a9583604051610e449190611aca565b60405180910390a160036000815480929190610e5f9061261c565b9190505550600067ffffffffffffffff811115610e7f57610e7e612664565b5b604051908082528060200260200182016040528015610ead5781602001602082028036833780820191505090505b5060089080519060200190610ec39291906118ab565b506000600760006101000a81548160ff0219169083151502179055506000600181905550505050505050565b60008060009054906101000a900473ffffffffffffffffffffffffffffffffffffffff16905090565b60046020528060005260406000206000915054906101000a900473ffffffffffffffffffffffffffffffffffffffff1681565b600073ffffffffffffffffffffffffffffffffffffffff1660046000600354815260200190815260200160002060009054906101000a900473ffffffffffffffffffffffffffffffffffffffff1673ffffffffffffffffffffffffffffffffffffffff1614610fef576040517f08c379a0000000000000000000000000000000000000000000000000000000008152600401610fe690611e58565b60405180910390fd5b60001515600760019054906101000a900460ff16151514611045576040517f08c379a000000000000000000000000000000000000000000000000000000000815260040161103c90612705565b60405180910390fd5b600061104f6103a7565b905060008211611094576040517f08c379a000000000000000000000000000000000000000000000000000000000815260040161108b90612797565b60405180910390fd5b6000600590508083836110a791906127b7565b11156110e8576040517f08c379a00000000000000000000000000000000000000000000000000000000081526004016110df9061285d565b60405180910390fd5b6110f0610eef565b73ffffffffffffffffffffffffffffffffffffffff163373ffffffffffffffffffffffffffffffffffffffff161461117f5760006729a2241af62c00009050838161113b919061243f565b34101561117d576040517f08c379a0000000000000000000000000000000000000000000000000000000008152600401611174906128ef565b60405180910390fd5b505b6000600354905060005b848110156112f7576008339080600181540180825580915050600190039060005260206000200160009091909190916101000a81548173ffffffffffffffffffffffffffffffffffffffff021916908373ffffffffffffffffffffffffffffffffffffffff16021790555033600560008481526020019081526020016000206000838761121691906127b7565b815260200190815260200160002060006101000a81548173ffffffffffffffffffffffffffffffffffffffff021916908373ffffffffffffffffffffffffffffffffffffffff1602179055506006600083815260200190815260200160002060003373ffffffffffffffffffffffffffffffffffffffff1673ffffffffffffffffffffffffffffffffffffffff16815260200190815260200160002081856112be91906127b7565b908060018154018082558091505060019003906000526020600020016000909190919091505580806112ef9061261c565b915050611189565b50836001600082825461130a91906127b7565b9250508190555050505050565b600760019054906101000a900460ff1681565b60606006600084815260200190815260200160002060008373ffffffffffffffffffffffffffffffffffffffff1673ffffffffffffffffffffffffffffffffffffffff1681526020019081526020016000208054806020026020016040519081016040528092919081815260200182805480156113c657602002820191906000526020600020905b8154815260200190600101908083116113b2575b5050505050905092915050565b6113db611456565b600073ffffffffffffffffffffffffffffffffffffffff168173ffffffffffffffffffffffffffffffffffffffff160361144a576040517f08c379a000000000000000000000000000000000000000000000000000000000815260040161144190612981565b60405180910390fd5b611453816114d4565b50565b61145e6118a3565b73ffffffffffffffffffffffffffffffffffffffff1661147c610eef565b73ffffffffffffffffffffffffffffffffffffffff16146114d2576040517f08c379a00000000000000000000000000000000000000000000000000000000081526004016114c9906129ed565b60405180910390fd5b565b60008060009054906101000a900473ffffffffffffffffffffffffffffffffffffffff169050816000806101000a81548173ffffffffffffffffffffffffffffffffffffffff021916908373ffffffffffffffffffffffffffffffffffffffff1602179055508173ffffffffffffffffffffffffffffffffffffffff168173ffffffffffffffffffffffffffffffffffffffff167f8be0079c531659141344cd1fd0a4f28419497f9722a3daafe3b4186f6b6457e060405160405180910390a35050565b6115a0611456565b600073ffffffffffffffffffffffffffffffffffffffff1660046000600354815260200190815260200160002060009054906101000a900473ffffffffffffffffffffffffffffffffffffffff1673ffffffffffffffffffffffffffffffffffffffff1614611644576040517f08c379a000000000000000000000000000000000000000000000000000000000815260040161163b90611e58565b60405180910390fd5b60011515600760019054906101000a900460ff1615151461169a576040517f08c379a000000000000000000000000000000000000000000000000000000000815260040161169190611f10565b60405180910390fd5b6000600960009054906101000a900473ffffffffffffffffffffffffffffffffffffffff169050600073ffffffffffffffffffffffffffffffffffffffff168173ffffffffffffffffffffffffffffffffffffffff1603611730576040517f08c379a000000000000000000000000000000000000000000000000000000000815260040161172790612a7f565b60405180910390fd5b60008173ffffffffffffffffffffffffffffffffffffffff166319c2b4c36040518163ffffffff1660e01b8152600401602060405180830381865afa15801561177d573d6000803e3d6000fd5b505050506040513d601f19601f820116820180604052508101906117a19190612ab4565b9050600081036117e6576040517f08c379a00000000000000000000000000000000000000000000000000000000081526004016117dd90612b53565b60405180910390fd5b8173ffffffffffffffffffffffffffffffffffffffff1663d8a4676f826040518263ffffffff1660e01b815260040161181f91906119b8565b600060405180830381865afa15801561183c573d6000803e3d6000fd5b505050506040513d6000823e3d601f19601f820116820180604052508101906118659190612cc9565b6007600060026000849190509080519060200190611884929190611935565b508391906101000a81548160ff02191690831515021790555050505050565b600033905090565b828054828255906000526020600020908101928215611924579160200282015b828111156119235782518260006101000a81548173ffffffffffffffffffffffffffffffffffffffff021916908373ffffffffffffffffffffffffffffffffffffffff160217905550916020019190600101906118cb565b5b5090506119319190611982565b5090565b828054828255906000526020600020908101928215611971579160200282015b82811115611970578251825591602001919060010190611955565b5b50905061197e9190611982565b5090565b5b8082111561199b576000816000905550600101611983565b5090565b6000819050919050565b6119b28161199f565b82525050565b60006020820190506119cd60008301846119a9565b92915050565b60008115159050919050565b6119e8816119d3565b82525050565b6000602082019050611a0360008301846119df565b92915050565b6000604051905090565b600080fd5b600080fd5b611a268161199f565b8114611a3157600080fd5b50565b600081359050611a4381611a1d565b92915050565b60008060408385031215611a6057611a5f611a13565b5b6000611a6e85828601611a34565b9250506020611a7f85828601611a34565b9150509250929050565b600073ffffffffffffffffffffffffffffffffffffffff82169050919050565b6000611ab482611a89565b9050919050565b611ac481611aa9565b82525050565b6000602082019050611adf6000830184611abb565b92915050565b611aee81611aa9565b8114611af957600080fd5b50565b600081359050611b0b81611ae5565b92915050565b60008060408385031215611b2857611b27611a13565b5b6000611b3685828601611a34565b9250506020611b4785828601611afc565b9150509250929050565b600060208284031215611b6757611b66611a13565b5b6000611b7584828501611afc565b91505092915050565b600060208284031215611b9457611b93611a13565b5b6000611ba284828501611a34565b91505092915050565b600081519050919050565b600082825260208201905092915050565b6000819050602082019050919050565b611be08161199f565b82525050565b6000611bf28383611bd7565b60208301905092915050565b6000602082019050919050565b6000611c1682611bab565b611c208185611bb6565b9350611c2b83611bc7565b8060005b83811015611c5c578151611c438882611be6565b9750611c4e83611bfe565b925050600181019050611c2f565b5085935050505092915050565b60006020820190508181036000830152611c838184611c0b565b905092915050565b600082825260208201905092915050565b7f5b4c6f74746572795d3a204e6f2073652070756564652064657370617573617260008201527f20756e612076657a206573746520636f6e65637461646f20656c20565246763260208201527f2e00000000000000000000000000000000000000000000000000000000000000604082015250565b6000611d1e604183611c8b565b9150611d2982611c9c565b606082019050919050565b60006020820190508181036000830152611d4d81611d11565b9050919050565b7f5b4c6f74746572795d3a20546f6461766961206e6f20736520686120636f6e6560008201527f637461646f20616c2056524676322e0000000000000000000000000000000000602082015250565b6000611db0602f83611c8b565b9150611dbb82611d54565b604082019050919050565b60006020820190508181036000830152611ddf81611da3565b9050919050565b7f5b4c6f74746572795d3a204c61206c6f746572696120746f6461766961206e6f60008201527f20686120636f6d656e7a61646f206f2068612066696e616c697a61646f2e0000602082015250565b6000611e42603e83611c8b565b9150611e4d82611de6565b604082019050919050565b60006020820190508181036000830152611e7181611e35565b9050919050565b7f5b4c6f74746572795d3a20457320696d7072657363696e6469626c652071756560008201527f20656c20636f6e747261746f2065737465207061757361646f2070617261207260208201527f65616c697a6172206573746120616363696f6e2e000000000000000000000000604082015250565b6000611efa605483611c8b565b9150611f0582611e78565b606082019050919050565b60006020820190508181036000830152611f2981611eed565b9050919050565b7f5b4c6f74746572795d3a204e6f206578697374656e206a756761646f7265732e600082015250565b6000611f66602083611c8b565b9150611f7182611f30565b602082019050919050565b60006020820190508181036000830152611f9581611f59565b9050919050565b7f5b4c6f74746572795d3a204c61207265717565737420616c206f726163756c6f60008201527f20646520436861696e6c696e6b20657374612070656e6469656e74652064652060208201527f636f6e6669726d6163696f6e2e00000000000000000000000000000000000000604082015250565b600061201e604d83611c8b565b915061202982611f9c565b606082019050919050565b6000602082019050818103600083015261204d81612011565b9050919050565b600081549050919050565b600081905092915050565b60008190508160005260206000209050919050565b6120888161199f565b82525050565b600061209a838361207f565b60208301905092915050565b60008160001c9050919050565b6000819050919050565b60006120d06120cb836120a6565b6120b3565b9050919050565b60006120e382546120bd565b9050919050565b6000600182019050919050565b600061210282612054565b61210c818561205f565b93506121178361206a565b8060005b8381101561214f5761212c826120d7565b612136888261208e565b9750612141836120ea565b92505060018101905061211b565b5085935050505092915050565b6000819050919050565b6121776121728261199f565b61215c565b82525050565b600061218982856120f7565b91506121958284612166565b6020820191508190509392505050565b7f4e487b7100000000000000000000000000000000000000000000000000000000600052601260045260246000fd5b60006121df8261199f565b91506121ea8361199f565b9250826121fa576121f96121a5565b5b828206905092915050565b7f4e487b7100000000000000000000000000000000000000000000000000000000600052603260045260246000fd5b7f5b4c6f74746572795d3a204c6120646972656363696f6e206e6f20657320766160008201527f6c6964612e000000000000000000000000000000000000000000000000000000602082015250565b6000612290602583611c8b565b915061229b82612234565b604082019050919050565b600060208201905081810360008301526122bf81612283565b9050919050565b7f5b4c6f74746572795d3a20456c2062616c616e63652064656c2067616e61646f60008201527f7220657320696e666572696f72206120312e0000000000000000000000000000602082015250565b6000612322603283611c8b565b915061232d826122c6565b604082019050919050565b6000602082019050818103600083015261235181612315565b9050919050565b7f5b4c6f74746572795d3a2046616c6c6f20656e206c612076657269666963616360008201527f696f6e206465206c612070726f7069656461642064656c207469636b6574206760208201527f616e61646f722e00000000000000000000000000000000000000000000000000604082015250565b60006123da604783611c8b565b91506123e582612358565b606082019050919050565b60006020820190508181036000830152612409816123cd565b9050919050565b7f4e487b7100000000000000000000000000000000000000000000000000000000600052601160045260246000fd5b600061244a8261199f565b91506124558361199f565b92508282026124638161199f565b9150828204841483151761247a57612479612410565b5b5092915050565b600061248c8261199f565b91506124978361199f565b9250826124a7576124a66121a5565b5b828204905092915050565b600081905092915050565b50565b60006124cd6000836124b2565b91506124d8826124bd565b600082019050919050565b60006124ee826124c0565b9150819050919050565b7f5b4c6f74746572795d3a2043616c6c20612057696e6e65722066616c6c69646f60008201527f2e00000000000000000000000000000000000000000000000000000000000000602082015250565b6000612554602183611c8b565b915061255f826124f8565b604082019050919050565b6000602082019050818103600083015261258381612547565b9050919050565b7f5b4c6f74746572795d3a2043616c6c2061204c69717569646974792066616c6c60008201527f69646f2e00000000000000000000000000000000000000000000000000000000602082015250565b60006125e6602483611c8b565b91506125f18261258a565b604082019050919050565b60006020820190508181036000830152612615816125d9565b9050919050565b60006126278261199f565b91507fffffffffffffffffffffffffffffffffffffffffffffffffffffffffffffffff820361265957612658612410565b5b600182019050919050565b7f4e487b7100000000000000000000000000000000000000000000000000000000600052604160045260246000fd5b7f5b4c6f74746572795d3a20456c206d696e74656f20657374612070617573616460008201527f6f2e000000000000000000000000000000000000000000000000000000000000602082015250565b60006126ef602283611c8b565b91506126fa82612693565b604082019050919050565b6000602082019050818103600083015261271e816126e2565b9050919050565b7f5b4c6f74746572795d3a204c612063616e7469646164206d696e696d6120657360008201527f203120756e6964616420646520746f6b656e2e00000000000000000000000000602082015250565b6000612781603383611c8b565b915061278c82612725565b604082019050919050565b600060208201905081810360008301526127b081612774565b9050919050565b60006127c28261199f565b91506127cd8361199f565b92508282019050808211156127e5576127e4612410565b5b92915050565b7f5b4c6f74746572795d3a20536520657863656465206c612063616e746964616460008201527f206d6178696d6120646973706f6e69626c652e00000000000000000000000000602082015250565b6000612847603383611c8b565b9150612852826127eb565b604082019050919050565b600060208201905081810360008301526128768161283a565b9050919050565b7f5b4c6f74746572795d3a2043616e746964616420696e737566696369656e746560008201527f2e00000000000000000000000000000000000000000000000000000000000000602082015250565b60006128d9602183611c8b565b91506128e48261287d565b604082019050919050565b60006020820190508181036000830152612908816128cc565b9050919050565b7f4f776e61626c653a206e6577206f776e657220697320746865207a65726f206160008201527f6464726573730000000000000000000000000000000000000000000000000000602082015250565b600061296b602683611c8b565b91506129768261290f565b604082019050919050565b6000602082019050818103600083015261299a8161295e565b9050919050565b7f4f776e61626c653a2063616c6c6572206973206e6f7420746865206f776e6572600082015250565b60006129d7602083611c8b565b91506129e2826129a1565b602082019050919050565b60006020820190508181036000830152612a06816129ca565b9050919050565b7f5b4c6f74746572795d3a204c6120646972656363696f6e2064656c205652467660008201527f32206e6f2065732076616c6964612e0000000000000000000000000000000000602082015250565b6000612a69602f83611c8b565b9150612a7482612a0d565b604082019050919050565b60006020820190508181036000830152612a9881612a5c565b9050919050565b600081519050612aae81611a1d565b92915050565b600060208284031215612aca57612ac9611a13565b5b6000612ad884828501612a9f565b91505092915050565b7f5b4c6f74746572795d3a20546f6461766961206e6f207365206861207265616c60008201527f697a61646f206c612072657175657374206120436861696e6c696e6b2e000000602082015250565b6000612b3d603d83611c8b565b9150612b4882612ae1565b604082019050919050565b60006020820190508181036000830152612b6c81612b30565b9050919050565b612b7c816119d3565b8114612b8757600080fd5b50565b600081519050612b9981612b73565b92915050565b600080fd5b6000601f19601f8301169050919050565b612bbe82612ba4565b810181811067ffffffffffffffff82111715612bdd57612bdc612664565b5b80604052505050565b6000612bf0611a09565b9050612bfc8282612bb5565b919050565b600067ffffffffffffffff821115612c1c57612c1b612664565b5b602082029050602081019050919050565b600080fd5b6000612c45612c4084612c01565b612be6565b90508083825260208201905060208402830185811115612c6857612c67612c2d565b5b835b81811015612c915780612c7d8882612a9f565b845260208401935050602081019050612c6a565b5050509392505050565b600082601f830112612cb057612caf612b9f565b5b8151612cc0848260208601612c32565b91505092915050565b60008060408385031215612ce057612cdf611a13565b5b6000612cee85828601612b8a565b925050602083015167ffffffffffffffff811115612d0f57612d0e611a18565b5b612d1b85828601612c9b565b915050925092905056fea26469706673582212205ec9ba287b715d0c2c4e4b87506d651078a994a7126f2356a10f7ae7c0c294e364736f6c63430008110033",
    "linkReferences": {},
    "deployedLinkReferences": {}
}